:100000000C94CD080C94FA080C94FA080C94FA0895
:100010000C94FA080C94FA080C94FA080C94FA0858
:100020000C94FA080C94FA080C94FA080C94FA0848
:100030000C94D63B0C94FA080C94FA080C94FA0829
:100040000C94FA080C947A1E0C94FA080C94FA0892
:100050000C94FA080C94FA080C94FA080C94FA0818
:100060000C94FA080C94AD3B0C94833B0C94FA0866
:100070000C94FA080C94FA080C94FA080C94FA08F8
:100080000C94FA080C94FA080C94FA080C94FA08E8
:100090000C94FA080C94FA080C94FA080C94FA08D8
:1000A0000C94FA080C94FA080C94FA080C94FA08C8
:1000B0000C94FA080C94FA080C94FA080C94FA08B8
:1000C0000C94FA080C94FA080C94FA080C94FA08A8
:1000D0000C94FA080C94FA080C94FA080C94FA0898
:1000E0000C94FA080C94722A0C9477170C94CC2078
:1000F0000C949B370C947D300C94CB2D0C942237B0
:100100000C94BB350C94F8200C94761B0C94212B8A
:100110000C94773B0C948E350C94CA2A0C94E61CF4
:100120000C940C310C9460300C94DB350C945226FA
:100130000C9421140C9431190C9498290C94F113FB
:100140000C945F300C94E5170C94BB210C94F623AF
:100150000C94BD350C940C160C9492300C94D23443
:100160000C9419300C94B1120C94DE1B0C948B1966
:100170000C9416120C94A92C0C94E81D0C94962443
:100180000C9441370C940E350C9462230C94702D12
:100190000C941F380C94212E0C94FA2F0C940C39CB
:1001A0000C94C7130C9470200C9414200C94BF2B47
:1001B0000C94D8270C941C2F0C94DD340C94B02A8A
:1001C0000C941C160C947F310C94B82D0C943312A3
:1001D0000C94B12C0C9474140C94DA2B0C94012113
:1001E0000C945B170C9498260C943F170C944522A2
:1001F0000C940D2A0C94AD200C94B3290C94B936B0
:100200000C94B1340C9440260C9489120C94712EE9
:100210000C9476270C94732D0C941E1E0C94C436EB
:100220000C94B2230C94882F0C9420270C94A719BB
:100230000C947E210C94AD220C9439240C940E2D38
:100240000C94532E0C9460370C942D350C94C01BD9
:100250000C94E6220C9458390C94692F0C94AE3609
:100260000C943D130C946E1D0C94F8160C94C2293A
:100270000C94BE300C94BF130C9407310C94E91C01
:100280000C9454240C94642D0C94902B0C943E2AC2
:10029000040000000004040000000004000000004E
:1002A0000000000400000000000400020000040040
:1002B0000400000407040400000404040000020217
:1002C0000000000204070004070704000404000003
:1002D00004000202040404040400000400040404F2
:1002E00004040404000400020304000404000400E5
:1002F00004000004000400000000000000000102EF
:100300000102F402BE30020001000000642D03006F
:1003100001000000702D040001000000732D050095
:1003200001000000B82D06010001B10531190700D8
:1003300001000000A71908010001F3028B19090050
:10034000010000005F300A020101AC057D300B03A3
:100350000103F00260300C020102EE0292300D0245
:100360000002F40207310E02000298050C310F035F
:100370000003F0027F3110020002EE02C01B1105E3
:100380000005E902761B120200029805902B13016A
:100390000001F302722A14020002EE028912150211
:1003A00000029805161216040004E502B1121705A2
:1003B0000005E002331218010001F3023E2A190879
:1003C0000008D802CA2A1A030003D502B02A1B0269
:1003D0000002980576271C020002EE0220271D0469
:1003E00000049005D8271E010001F30240261F08D3
:1003F0000008CD02211420020002EE025226210440
:1004000000039A05C713220300029D050C1623035F
:1004100000029D051C162404000494057414250193
:100420000001F302BF1326030003CA02F1132705DC
:100430000003C702DA2B28040003C402B12C2903ED
:1004400000029D05BF2B2A04000494050E2D2B01EC
:100450000001F302A92C2C030003C102F8202D0394
:1004600000039F056E1D2E060006BB02E81D2F022D
:1004700000029805AD2230050005B6027020310457
:100480000004A605CC20320200029805AD203304FA
:100490000003B302452234050005AE02E622350111
:1004A0000001F302712E3604000384051C2F37056A
:1004B0000005A9027E21380400049405212E390389
:1004C0000003CA02532E3A0300029D05692F3B0325
:1004D00000029D05FA2F3C060006A302882F3D036B
:1004E00000029D053F173E0300029D055B173F0874
:1004F00000089B02771740060006A302E517410596
:1005000000059602F81642060006900254244303A2
:100510000003D502962444010001F3022D35450263
:100520000002EE028E354602000298050E354703A2
:1005300000029D051F3848040004900560374903F8
:100540000003D502DD344A010001F3029B374B0260
:100550000002EE0258394C020002980541374D0165
:100560000001F302C4364E020002EE020C394F02C3
:10057000000298052237500001000000773B51002F
:100580000500000004020704000002000204000746
:100590000400000404000000040404040704070429
:1005A000000204040400040400040401070400041D
:1005B0000200000000000000060002026740038401
:1005C00005661D0687056540038D056414049005C6
:1005D0006317049405620A0298056140029D056054
:1005E00040039A055F40029D055E40029D055D1037
:1005F000039F055C1104A2055B1104A6055A0D02B8
:10060000AA05590B01B105584001AC05571204ADBC
:1006100005560B01B105551002B205541503B4057A
:10062000004002B705530E02B905520901BB05513E
:100630000600000028292A2B2C2D2E2F5051525312
:100640005455565720002300260029002C002F0067
:100650003200000100000301060109010F470044B8
:1006600000450080013548004400450020010D8808
:10067000008000810080000E8A0080008100200040
:100680000F8C008000810008000CB300B000B100A6
:1006900080033EB400B000B1002003239800900016
:1006A00091008000249A00900091002000259C0079
:1006B0009000910008003BA800A000A10080003C31
:1006C000AA00A000A10020003DAC00A000A10008ED
:1006D000005B28012001210180005C2A012001210A
:1006E0000120005D2C0120012101080078DA9D59CC
:1006F0007B6FDB3812FF2A5C01C5DD1E92C0962C91
:100700003F72E81F8993767B6DDA6CDD5C0F381CD5
:100710000445A26D227AAD28E5B18B7EF79DE1F00C
:1007200025D9ED0257A0B0480E87E43C7EF3C81FE0
:1007300041DA34C179F0BE104DC3DBE024B8EF4597
:1007400091278FBC95A2AE242CEDB2EC9CFDFDED63
:100750007AFD338BCF666713762FAABE1385C4D973
:100760008F77EC520F7F66E159383F0B27D3F9643E
:100770001AC6C02AABCB32AD7260F2479016459DC7
:10078000A51D4F6A914B96D57DD5BD7E9505E74B4E
:100790003CB1EBE0A824CD1E18ACC2B4B73E5B78E8
:1007A00004796E089A5AAA1F51BD7ED5B3A62F8A26
:1007B000A46F68C3CA6DF8ADE7ED8BE50917784003
:1007C000EA96CB2EE944F62069D4B569254BD125AC
:1007D000E654262A78BF3E1F2E98153C6D13B9EFBC
:1007E000BBBC7EAA82F3109F566DC50E6EF45C44AE
:1007F000B3D81C211B91D06770BE9838AA2A2DEA65
:100800005D222A7B7B75EDE03C729CF4950D050D15
:10081000132787D8B15393BC1D321BC8205E58E202
:100820005CEC44971649DD77A30D8F69D1731CE703
:100830007C9BF64597D889327D4EF2BE4D3BB00089
:1008400075CFA9E3C7419F5DDD0C786583C3C3B94C
:1008500025DEE7B3D9623931C4AD4CF4D9DC7CE490
:1008600033FB15DBAFB9FD5AD82F5EA42F5669C1F3
:10087000F93CB28788306346E833375D0819E64FA4
:100880004735B3B24465D3AFC2D85E1058392AF7A2
:100890008C8AD78D78E6C5488079DAA58914BF831C
:1008A000CCF63D784597A0E03CC3921CA644E55D9C
:1008B0003B8E2DD3E6A93CA294EC058CCDF1D02A39
:1008C000D9F76325C1CC819666EEC6F0DC3163F4BE
:1008D000AF4E3CF2642F767BF5C268E9D38395EE88
:1008E0000A7E282F66D792EEA5E1249B68B0D378C4
:1008F000C6B1CD7A2929E5EEF5AB7F001444C3BD1E
:100900004FA2DB8318924C5A2546CEDA64B758853D
:10091000563D99B51F99150FF65BE4F6F3A5CA92FB
:10092000A1A9B0ACCC9303EB99782770043E7B75FA
:100930001826DAA873D19A4F020445ECA8FA42723D
:100940008F69E81ED6ED795BD6E0A7CD5189FACB49
:100950004EA873F7ECAECCFAB4B5B6D13E27074E2D
:10096000CE3A3B8996D7899293853948E95A94873C
:10097000132B3C3AE7F73DD8730D90BF3223E0B21A
:1009800053B64CFA995AB296A780B76DCE5B3C0F1E
:10099000C0B72530080DC1532B3A7E4081464B84A9
:1009A000D3938097BCDDF12A7B491035E0123045A6
:1009B0000892ECEB921F60B34CCBC677003DB6C8F3
:1009C0003CC46EB8BA432D7AAE95712B763BDEE20D
:1009D0002324FA070253EC0E579101EE9476DC0AB9
:1009E000289C9D045B01580D2E9D900C59D6666481
:1009F0003127C10EBC59DD1384AC478A06DC8186E1
:100A00007D835A003F3C0934F02512CE4BC0022DA5
:100A1000AEE337C9791E8EC8500586CCA9630E4255
:100A200044582AEB5C6C5F12D0B5E5D572E5524CA8
:100A30008727B801AE6A2F5BD136D2E1901EE792CC
:100A4000826BD09810A1DADE4B1F0961A8700C648C
:100A500084BFA85E2EC9D667A1DB25EB6DF794B6DF
:100A6000DCDF0EFE697D324FCDE7314EF3983869F9
:100A70005B1A3F7F86CFCF79D5C1E359BDDDC281F7
:100A8000CAA96D5C847503CF4A8C569B71E4ADF4A2
:100A90004DEE344DC9C3BEF78E8941676412A388F9
:100AA0003EB037B8ED6A44A74CA877D8355F5A8274
:100AB00071D0FF3F6DBC7436AE41DF8D2071D9C15E
:100AC000C63DCF1EBC54219A9A3B8C32057B83A62F
:100AD0000618199FEF45A9B961300CA223612C9625
:100AE00043B2B12C160BB33E0AB3633EF188EE80DD
:100AF00091D5CE419CFA4E52878E0861496C4922AD
:100B00008BD0303886CCDFE1E1097E20771A404473
:100B100000A0C83DB1CF496A3D3F9673D9336A3FC3
:100B20001D98C666CB281BB0E456D7E00A9618C3BA
:100B30008F7554543021AEF18ABDF230F8158069BA
:100B4000F072958840A63DD19F6A3F41D9F83CD8C4
:100B5000005448E3BF619430C2BDA30322F502955F
:100B6000BD589E83540636CD6953C59FF51520C0E8
:100B70005A8F172D61F094888C3CFE222D02A9809B
:100B80006D78190AA6F25B67F1CEC31753A2F33052
:100B9000C25B8D666675808238A55110F0977B1810
:100BA000065BE66ECB31082C85AC0DF095B514C70D
:100BB000529703A6737D8FEFBF23022BA0ACE847AB
:100BC000C1255E0DA98EC7967889542AFF493080C9
:100BD000012E0ACC26ADE34D578E40854DB45E0AFA
:100BE000ACCCC6592FEAC20E60A9B39781A815BC38
:100BF000DBE843000D1AD1BB5186E8B2473C004CFC
:100C000062E9E83A3F2BE24DDDEA904CDEABC6D616
:100C100048F8732340257E02B0B29C46AFF08900AD
:100C2000B5285C1CF363CF0766DF4CA685F5EDC5E0
:100C3000D53AB9B9F80FE64F98085EDE6D92DB77CA
:100C40001F3788585043DF5E4627B79721FC9F0621
:100C5000DE62F7A416AF2627B757B8B0FEF069FDDD
:100C60003E79F3F9FA57749789FA7712DCACEF8082
:100C70002AED4ABE4BC3783E01C2DBAF37745A88B7
:100C800015C5E7EBF5F5BB7F5F275FDF7DBCFAF4A9
:100C900015D516E2E4E6FA334CD22D782BD202CFEA
:100CA000BA86B3AEF12C587D77F121B9BCB8BB42FE
:100CB0003674D4E6CBC5974DB2B9BBD9FC0A2B9B91
:100CC0006B5C997FC3B4A987444E951AAA9AD7E959
:100CD000017EAA374C80066C1AC7B71793E0FCBF99
:100CE0009393E5FFE09A97F8BDA4EF357E0308A83B
:100CF000C1150E20E152836B1C402DAC066F703085
:100D0000D3FBDFAA8166F00B0E62CDE05F3858E8B6
:100D10003DEFD5317ACF0735C03DDF06D00079B63B
:100D20006A444CA328821B9F04A98C27B345AE724A
:100D300088AEE0F1641ADEC383F52EFD3CA53F7C4E
:100D40001EC6248126D842BE9C885C2B9D29E3D8F0
:100D50005228A6E2F7A2401B7F612697CC0930D724
:100D600069C5AABA6360EC0C018301C611B0316594
:100D7000B3EC692FE09B6C4FB206BC074E224436A1
:100D80007B7BC9556C6BA76C5BB70CCCE09F662C6A
:100D900024AEE66A5E4D497231D8FAB70E030214EA
:100DA0004A3BB810541F6987D4A9BE269585941E66
:100DB0006B6289A468F294C4D3AC8A1D8A35DC9432
:100DC00057CC544E763F18DD9A3A3EAC495B3039E9
:100DD000C6DBB66E557E6C165A0E214C76AAEFF322
:100DE0002685F7E6ACAB99420AACE3958353D3E78B
:100DF0001D0558661A23AE4F43718EF21C43A55B46
:100E00004D2A357773408657494B0E41922A34B3A9
:100E100058D68FDCDC8661118F1EED966DC96F8B05
:100E20007C42FC83759D59DAF323EF02204046662D
:100E300087359399C5DADCE046B818CCEBDC26DBC5
:100E40008B466F9C4D8704A082BE716F9254F51B38
:100E50008A4176E371C16AE0267D463B5D1A815284
:100E6000257E037978BAE30C4A3488454661C0F29E
:100E70004648B42609C965DE175822C2660CDD4C07
:100E8000A3A2327CFEC8511318B5BFBF619FB6B98B
:100E900032764D8D85E80D8A5F65330CBEDA6D5173
:100EA0003F513AF411AC3C65F41C742F852AB3D140
:100EB00002D83D2D60B5EB2F88AAA1A4815A416AC2
:100EC000A9C29BBAE999424F6BFD4D5BEF40982553
:100ED0005C3DC5B76D21EAC22D41D81C1D17DB6EE4
:100EE0009FB97E141A2B7A161C83A20635A025639F
:100EF0002DB4B10407D2614FA228201865C06FD06D
:100F0000B3A1F0EA765A09FD600746B00D7821E9F1
:100F1000505D002944D99766CE3807DECAF465547F
:100F20008508CC94DF2A0CF27B991BEDC85D5DB37C
:100F30006DAA5E472FC382F88B6F52283220549DD2
:100F400028EA1F7D51F2C09D1087255705FE5D25BB
:100F5000FB06633127A756488A6DD9AF6997EDF331
:100F60007A4752FC896A34D518861AA6AF1E80319A
:100F70002202F51BBD79E916C032C9470032242090
:100F80001D7A3044792882A5D6AF6BED1060D55517
:100F90000118F7080CD2FBC240977D3E95C94C273B
:100FA0001FD4EE1D95DBE7EC13802704C07BCC1724
:100FB000B6D86E913F515AA27AD9164775873BA78A
:100FC0001E8AC4A2B502842093C960199730C10358
:100FD000F0575DCB8F17EBF7D4EE320D1F95A7A11D
:100FE000348BB4C5708279E99164045548068FED5D
:100FF000338DC0E44E988241B43A683161B8828C36
:10100000219A2EE358453F3D98ABF0478379ACECED
:101010000106F3F902BEA36FC0A91019881AF607DA
:10102000D8EC7F7BFBE1310A5421D1008870EAEDD6
:101030009B5277D05051CE9F1CAB6456916BD10F11
:1010400076A45E1DCBD40A25AAA7AA51AE0A16978C
:10105000172E6DBB13A299EEC5A8CC51B56C70CEFE
:10106000A859A5E30033892D9060B7EAB6A9F2F834
:1010700047B7D63BF447E24E3F0D57AE4F26C11F50
:101080006CDB6BB9726DA601E77D0D25E5EEF00C0A
:10109000BF8B05C299BACE4D62C4EC55CE6A4C6284
:1010A00059C5AE39E291DA2E0965FA67488A5D1EA4
:1010B0002710364E66B44C42AF65A25F652AA13E4A
:1010C000CB54CB26436D003738CBEF1A2E97CAE2AC
:1010D000C12521718202C72F382446D92AE3A39E55
:1010E000CB29261CFE9E41D5EF4A605DB89BB49E7D
:1010F000CA479FE57DAF403BA7CE06E42EE0E789D7
:10110000892A929E768A89997478685A31C7E5103F
:101110001DAB290F94E1F70D3CAD9C6250F78BB8E5
:10112000BFD2E24C25976DA7B2BDE594524DE94C74
:101130004FF6A5FE91BF9185CD5C5936AAD9A8B7C7
:101140000529EB6A320281A13E8FFA664FC84E4AEA
:101150000EBD4AEEF00158C391674EFDEACC197BF3
:1011600096DA52F1683BD67364AC56A877CAE86F3A
:1011700013BDEFE5316090FE6B2460D0E3E46C1AA0
:101180009E4D4EA7B3E8743799668B7BBE4D836F37
:101190007F02BEBEA5D6AA0A000011241FBECFEF53
:1011A000D1E2DEBFCDBF00E00CBF14BE0FB6F89495
:1011B000A895809160008861809360001092600023
:1011C0000FBE12E0A0E0B2E0EAE6F9E700E00BBFF4
:1011D00002C007900D92AA32B107D9F723E0AAE224
:1011E000B2E001C01D92A839B207E1F70E94AB1F1F
:1011F0000C94B33C0C940000CF93DF93CDB7DEB7D3
:101200006A970FB6F894DEBF0FBECDBF0E94981F3D
:101210006B017C019E012F5F3F4F1901AE01475FBB
:101220005F4F5F874E8780912602882309F42DC681
:101230000E94981FC61AD70AE80AF90AF894809102
:101240002602882351F08FEF8093260278940000C5
:10125000F894809126028111F9CF78940E94981F0A
:10126000A7019601260F371F481F591F2C8B3D8B56
:101270004E8B5F8B81E08093260280914C02882305
:1012800009F43EC010924C028FEF898360E476E24D
:10129000C1010E94D6198C01892B91F1D801569673
:1012A0008C9182FFF3CF0E94981FF894F801378940
:1012B0002689422F4B7F468B78949F938F937F9301
:1012C0006F931F923F9321701F922F9389811F92DA
:1012D0008F9323EF35E03F932F930E94CC326DB76D
:1012E0007EB7645F7F4F0FB6F8947EBF0FBE6DBFB1
:1012F00060E476E2C1010E94D6198C01892B71F657
:1013000080914D028823F9F010924D028FEF89836E
:1013100062E576E2C1010E94D619FC01892B99F0A1
:10132000958D868D9813F4CFF894858D968D8917B9
:1013300009F4A8C6789462E576E2C1010E94D61944
:10134000FC01892B69F7809149028823F9F01092FA
:1013500049028FEF89830FED15E06DEA70E2C1015C
:101360000E94D619009791F0DC0158962C912F3FDE
:10137000A1F7F894FC012685211151C578946DEAF6
:1013800070E2C1010E94D619009771F780914A025C
:101390008823D9F110924A028FEF89830AED15E074
:1013A00066EE72E2C1010E94D619009771F1DC016C
:1013B0001E962C911E9723FFF3CFF894FC012685EF
:1013C000277F268778949C01265E3F4F3F932F937B
:1013D00050968C918695869586951F928F938981DC
:1013E0001F928F931F930F930E94CC32EDB7FEB7DD
:1013F00038960FB6F894FEBF0FBEEDBF66EE72E2F0
:10140000C1010E94D619009791F680915602882357
:1014100009F446C0109256028FEF898300ED15E063
:1014200063E57EE2C1010E94D619FC01892BC1F15E
:10143000848D80FFF5CFF894948125813681478192
:10144000548965897689A789B08DF18CE28CD38C1B
:10145000848D8E7F848F7894DF92EF92FF92BF937A
:10146000AF937F936F935F934F933F932F939F938C
:1014700089811F928F931F930F930E94CC322DB7B7
:101480003EB7205F3F4F0FB6F8943EBF0FBE2DBF53
:1014900063E57EE2C1010E94D619FC01892B41F669
:1014A00080914B02882309F450C010924B028FEFB9
:1014B0008B87AE01455F5F4F2A0166E974E2C20186
:1014C0000E94D6195C01892B09F43FC0D5015996B9
:1014D0008C91599780FFF1CFF894F5016480758065
:1014E00086809780818D8E7F818F789458968C919D
:1014F000813009F401C308F4E1C2823009F4A1C2C9
:101500008330D9F6CB8419821A82910142E061E0DE
:10151000F501848995890E94121509811A81102785
:1015200001271027F02FF670EF2E20E030E0B401F5
:10153000A301C5010E940E2566E974E2C2010E9462
:10154000D6195C01892B09F0C1CF809158028823FC
:10155000E9F0109258028FEF8B879E01255F3F4F75
:10156000290119E0D12E02EFE02EFF24FA9406C0E3
:10157000D8011E968C911E9780FDEAC26EE075E33D
:10158000C2010E94D6198C01892B91F780915902D2
:10159000882309F462C0109259028FEF8B87FE01F5
:1015A0003B962F0177247A946DED74E3C2010E947B
:1015B000D6198C01892B09F450C0D8011E968C9144
:1015C00082FFF2CFF894F80184809580A680B780DE
:1015D000D1881686118A789480859185A285B385F5
:1015E000881A990AAA0ABB0A7801F2E1EF0EF11CE7
:1015F000D801DD2091F056968C91F801E80FF11D8D
:10160000778A108E118E8D5FF801868B823308F0F9
:10161000AEC0DA94D801D110EECF1F968C918823FA
:1016200009F4B0C1813009F4C6C3823009F4D6C4CC
:10163000D80156968C9190E0C2970CF4B5CF6B858B
:10164000C80142960E94C7386DED74E3C2010E9442
:10165000D6198C01892B09F0B0CF80915A028823CA
:10166000D1F010925A028FEF8D87FE013D966F01E7
:1016700032E7932E44E7B42E06C0D70152968C91E0
:10168000529780FDDCC261E477E3C6010E94D6195F
:101690007C01892B91F780915B028823E9F01092FD
:1016A0005B028FEF8D879E01235F3F4F690117E03B
:1016B000612E0FEA702E88EA882E06C0D8011E9689
:1016C0008C911E9780FD19C362E277E3C6010E94E8
:1016D000D6198C01892B91F7A895809174028823E3
:1016E00029F080E480936000109274021091350319
:1016F000112309F473C000912A0200FD12C01530B5
:1017000008F46CC0B0907502CB2C8BEF8B0D8C3332
:1017100008F4E2C3EEE7CE1609F475C50160009344
:101720002A02412F50E06EE770E085E792E00E94C8
:10173000843C009739F00E7F00932A02855792402F
:1017400011E0180F01FD0CC0902F926090932A02B7
:101750008FE795E09F938F930E94CC320F900F906C
:10176000B12EDD24DA9480E0EB2CF12C1EC06B85C9
:10177000C7010E94C738DA944DCF90E0402F50E067
:10178000481B590BB701680F791F6B587D4F8B5859
:101790009D4F0E949A3C10922602802F9FB7F8948A
:1017A00020913503121761F09FBF10913503012F6F
:1017B0000B1919F79FB7F894209135031213F4CF42
:1017C000009335039FBFF1E0DF1208C08FE795E07B
:1017D0009F938F930E94CC320F900F900E94981F7E
:1017E0006B017C012C893D894E895F89621B730BDB
:1017F000840B950B8090330290903402A0903502B8
:10180000B09036023FEF831A930AA30AB30A80927C
:10181000330290923402A0923502B0923602409088
:101820002F02509030026090310270903202460ECA
:10183000571E681E791E40922F025092300260920D
:101840003102709232026115710541E08407910501
:1018500008F020C39B01AC010E94E13BDC01CB01FD
:1018600081509F4FAF4FBF4F892F9A2FAB2FBB2770
:1018700040912B0250912C0260912D0270912E020A
:10188000840F951FA61FB71F84179507A607B707D4
:1018900018F48FEF9FEFDC0180932B0290932C02C2
:1018A000A0932D02B0932E02409152025091530208
:1018B00060915402709155025C546B437B4F2F2D05
:1018C000C416D506E606270B27FDADCCBF93AF9314
:1018D0009F938F937F926F925F924F92BF92AF923E
:1018E0009F928F928BE196E09F938F930E94CC32D0
:1018F0006DB77EB7625F7F4F0FB6F8947EBF0FBEA5
:101900006DBF8091520290915302A0915402B09108
:101910005502C816D906EA06FB0698F480914E02D5
:1019200090914F02A0915002B09151020196A11DD9
:10193000B11D80934E0290934F02A0935002B0933A
:101940005102C0925202D0925302E0925402F0929D
:10195000550210922B0210922C0210922D0210921E
:101960002E0210922F021092300210923102109229
:101970003202109233021092340210923502109209
:10198000360251CC82E389831A820E94981F6B0130
:101990007C01910142E061E0F801848595850E9417
:1019A00012150E94981FDC01CB018C199D09AE090C
:1019B000BF0981329340A105B10508F022C2998187
:1019C00097FD5AC2C818D908EA08FB08D8015096F2
:1019D0008C918823C1F02FEF280F41E050E002C026
:1019E000440F551F2A95E2F7052E000C660B770B66
:1019F000C40ED51EE61EF71E04C0F694E794D794D5
:101A0000C7948A95D2F7BFEFCB16D104E104F10455
:101A100008F094C22A8130E0220F331F892F90E012
:101A2000982F8827990F822B932BF8012689E20F94
:101A3000F11DC78A808F918F2D5FD80156962C9308
:101A4000F7CDCB8481E089831A821B821C829101AD
:101A500043E061E0848995890E94121569817A8149
:101A60008B819C810E94133CBB27A92F982F872F25
:101A70009C01AD0144275527288B398B4A8B5B8B02
:101A800037E039831A82910142E061E0D501549632
:101A90008D919C9155970E9412158A81982F9C7F59
:101AA00088898170E92EE82A088919892A893B8961
:101AB000B401A301C5010E940E25FFCCCB8419827D
:101AC0001A821B821C82910144E061E0F501848945
:101AD00095890E94121569817A818B819C810E946F
:101AE000133CF62FF770EF2E8B019C01B401A3017C
:101AF000C5010E940E25E1CC2B85288B3CE0398363
:101B00001A821B821C82910144E061E084899589DC
:101B10000E94121569817A818B819C810E94133CFD
:101B20006B017C01BFE0B9831A82910142E061E060
:101B3000F501848995890E94121597018601332742
:101B4000C888EA80B401A301C5010E940E25B5CC66
:101B5000CB84F1012D2D11922A95E9F7E9829101AB
:101B600049E061E01C968D919C911D970E94121591
:101B7000D80153968C9190E0FC017496E00FF11F10
:101B80003B81232F207FE1F0203FD1F0F482F382CC
:101B9000F282F182F801E80FF91FF48AF8018389D3
:101BA0008B5F838B803308F003C2D8011E968C9123
:101BB0001E978E7F1E968C93C8010E94ED38DECC56
:101BC0002D81422F407F09F0B5C15F81452F407FB5
:101BD00011F0403FD9F648854039C1F649854F7725
:101BE000B42EB0E2B41790F2D801A80FB91F4A8101
:101BF00054964C938C8181838E818283852F90E0D3
:101C00003F71AC01440F551F42955295507F5427A8
:101C1000407F5427342B3383880F991F880F991FD7
:101C200080762F71822B8483D80153968C915397A1
:101C30008B5F53968C93803308F4C0C1BAC1AD84D6
:101C400050968D919C915197C09748F1B982D701D8
:101C50001C96ED91FC911D978701085E1F4F20E3B4
:101C6000A10161E080810E942D1A80E3F701878B3A
:101C700080899189C097918B808B6A2DC70143968B
:101C80000E94C738D70150968D919C915197C0976B
:101C900060F11092260281E080935A02F4CCD701C1
:101CA0001C96ED91FC911D979B86810122E0AE016F
:101CB000455F5F4F61E080810E942D1A89818F719D
:101CC00090E0982F88272A81822BF7012685378577
:101CD0002817390710F497878687D70151969C9368
:101CE0008E935097C0970CF0B1CFF70182898E7F09
:101CF000828BC7010E943939C6CC4D84F101262D53
:101D000011922A95E9F77B861C8689825396AC90BE
:101D10005397B12C750134E1E30EF11CE00EF11E76
:101D2000910147E061E01C968D919C911D970E9466
:101D300012159E01255F3F4F42E061E0D8011C96DD
:101D40008D919C911D970E9412158C85B82FBF73A1
:101D50005B2E8074982EF801EA0DFB1D8A81848B1E
:101D60008B81F70181838C8182838D8183838E8136
:101D700084838F818583D80153968C9153978A5F92
:101D800053968C938F3208F0A4C1992031F0F8015A
:101D9000818992890196928B818B552009F493C198
:101DA000D8011E968C911E978E7F1E968C93C8012B
:101DB0000E94ED3889CC8FE789838EEF8A830E9459
:101DC000981F688B798B8A8B9B8B910142E060E036
:101DD000F801848595850E9412150E94981F6B0159
:101DE0007C01DC01CB01288939894A895B89821B06
:101DF000930BA40BB50B81329340A105B10508F4F8
:101E0000AAC0D80156968C91F801E80FF11D778A87
:101E100092E0908F118E8D5FF801868B09CC318D09
:101E2000308F7894AC01415F5F4F5F934F931F9267
:101E30002F93FC0187891F928F9389811F928F9323
:101E40001F930F930E94CC322DB73EB7265F3F4FB2
:101E50000FB6F8943EBF0FBE2DBF7FCA2E853F85BB
:101E6000E217F30709F0FEC0809590E02A8530E084
:101E70008217930709F433C1D80156968C91F80163
:101E8000E80FF11D778A93E0C4CFCC8ADD8AEE8A11
:101E9000FF8AF0C96115710550E18507910508F0C9
:101EA000F8CC8B019C0101501F4F2F4F3F4F5527FE
:101EB000432F322F212F0E94E13BDC01CB014091C7
:101EC0002B0250912C0260912D0270912E02840FF2
:101ED000951FA61FB71FD8CCD09076028D2D807F7E
:101EE000803109F017CC1B1508F478CC8B2D90E0CD
:101EF000FC01EC58FD4F20812E3709F00BCCFC0182
:101F0000EE58FD4F4F01FC01ED58FD4F9081D4017B
:101F10008C91292F30E07901F82A6DEF6B0D85E760
:101F200092E00E94AE1FE816F90609F46EC1C09057
:101F30007502F0CB403F09F029CE47CEF8018689E3
:101F4000E80FF11D778A91E0908F118E8D5FD80197
:101F500056968C936DCB80EC89831A82910142E076
:101F600061E0D8011C968D919C911D970E941215DD
:101F700049812A81942F9227892F82958F709827E3
:101F8000892F869586958927982F9695892780FD94
:101F9000BAC046FFC8C0F8018689E80FF11D778AEC
:101FA00025E0208F118E8D5FD80156968C9340CB03
:101FB000B12C6C2DC8010F960E94C738BEE1BB152D
:101FC00008F02FC2F801818992890196928B818B4A
:101FD0001092260281E080935802D0CAD8011C9644
:101FE000ED91FC911D976480B281B88B2381288F7D
:101FF00040E06B2F722F862D0E94511B0E94981F6C
:102000006B017C0130E1C30ED11CE11CF11C0E946C
:10201000981F2F2DC616D706E806290B27FFF7CFE6
:10202000F89441E06889788D862D0E94511B0E94AA
:10203000981F6B017C017894D101EAE01D92EA952A
:10204000E9F7F4E8F98323E22A8391014AE061E0A9
:10205000D8011C968D919C911D970E941215FE012E
:10206000339685E09191892728E030E005C0880FFC
:102070002150310909F4F2CE87FFF9CF880FBDE175
:102080008B27F6CF548965899089218932894389C4
:102090008F5F858F78946F935F934F933F932F93C8
:1020A0009F9389811F928F938EEE95E09F938F93DC
:1020B0000E94CC32EDB7FEB73A960FB6F894FEBF49
:1020C0000FBEEDBF25C91092260281E080935B020E
:1020D000FBCA642DC8010F960E94C73856CE898569
:1020E00084FF18C08B8187FD60C0D80156968C9103
:1020F000F801E80FF11D778AB4E0B08F118E8D5F83
:10210000F801868B95CAF8018689E80FF11D778A58
:1021100093E01ACFD80156968C91F801E80FF11D83
:10212000778AB5E0EACFC818D908EA08FB08F801B1
:1021300030893323C9F08FEF830F61E070E002C074
:10214000660F771F8A95E2F7CB01092E000CAA0BC8
:10215000BB0BC80ED91EEA1EFB1E04C0F694E79402
:10216000D794C7943A95D2F77FEFC716D104E1040C
:10217000F10408F03FC0842F90E0AC01542F4427B5
:10218000550F550FF4E02F9FC0011124842B952B80
:10219000D80156962C91F801E20FF11DC78A808F65
:1021A000918F2D5FF801268B43CAC818D908EA0819
:1021B000FB08F1E5CF16F5E5DF06E104F104D0F404
:1021C0002C8130E0220F331F90E0982F8827990F41
:1021D000822B932BD80156963C91F801E30FF11D09
:1021E0002F8126952F73278B808F918F3D5FF8016C
:1021F000368B1ECAD80156968C91F801E80FF11D56
:10220000778A91E006CE11E0ABCA802F8D7F809354
:102210002A0280910902D81202C181E08D0D8F70CF
:10222000806180930902B7E78B16B2E09B0609F044
:1022300008F4BEC0E7E7F2E0BA8ECDB6DEB68F0195
:102240000F5F1F4F2081222309F4E6C0EEE7F5E07F
:102250008491281708F0E0C030E0220F331F220FCE
:10226000331F220F331FF901E950FD4FE4914DB7A1
:102270005EB764E0E69F4019510911240FB6F89447
:102280005EBF0FBE4DBF8DB79EB70196F901E750F7
:10229000FD4F4491F901E650FD4F65917491FB01AA
:1022A000640F711DAC01D98AC88A998F888FE6178F
:1022B000F70709F482C08016910608F46EC0A49155
:1022C000A53028F1A73009F068C02801BFEF4B1AEC
:1022D0005B0AD801AC9082010A0D111D801691068F
:1022E00008F45BC0B12CC12CD12CDA01AD92BD92A7
:1022F000CD92DC921397612C712C14964D925D92C5
:102300006D927C921797485F5F4F3196D0CF7A01DC
:1023100084E0E80EF11C68019FEFC91AD90AD801C0
:102320001C91912F9F77492E512C612C712C012FDC
:1023300000760036A9F117FF3EC086010F5F1F4FE0
:10234000D80111978C91440C551C661C771C440CC9
:10235000551C661C771C440C551C661C771C440CD1
:10236000551C661C771C440C551C661C771C440CC1
:10237000551C661C771C440C551C661C771C982F3A
:102380009F77492A87FDDACFDA014D925D926D92EF
:102390007C921397A70131968ACF87E00E94703B09
:1023A000B0EE4B2A55245A94652C762CC4CFBA8CA7
:1023B000DD24D394D8C98601E7CFC888D988888D11
:1023C000998D40912702442331F0F901E850FD4FE7
:1023D000E491E0FF11C024503D4FF9012591349163
:1023E000F90119950FB6F894DEBE0FBECDBE0815E3
:1023F0001905E8F6F80121CF809128021F928F93EA
:10240000EAE2F6E0FF93EF930E94CC320FB6F89425
:10241000DEBE0FBECDBEEBCF85E00E94703B1B2D14
:1024200097C9F1E0FB1508F4D3CDBFCBCF93DF9371
:10243000EC0163E372E188810E943928FC018C8100
:102440009D81AE81BF81892B8A2B8B2B51F420E09B
:10245000F89494A59D7F922B94A77894DF91CF91C7
:10246000089522E0F5CF0F931F93CF93DF938C0154
:102470004DE250E063E372E1FC0180810E940A2892
:10248000EC01F801848518160CF041C064E06CA7DB
:10249000F80184810E94461E6A8F7B8F8C8F60E0DA
:1024A000F80180850E94461E6D8F7E8F8F8F80E0A1
:1024B00090E0A0E0B0EC88A399A3AAA3BBA3F80185
:1024C00080899189A289B3898E8B9F8BA88FB98FC0
:1024D0006BE070E0CE0184960E949B288E899F89D4
:1024E000A88DB98D8997A105B10548F08DE393E1D9
:1024F0009B838A83DF91CF911F910F9108958CA5C3
:1025000080618CA7DF91CF911F910F91089560E0BA
:10251000BECFCF93DF93EC0163E372E188810E9429
:102520003928FC018C819D81AE81BF81F89446855C
:10253000578560897189452B462B472B79F4848315
:102540009583A683B783828B938BA48BB58B84A54D
:10255000877F84A77894DF91CF91089586E10E94C8
:10256000703B0F931F93CF93DF938C0163E372E172
:10257000DC018C910E943928EC010E94B528FC01F5
:10258000D80114964D915D916D917C91179742837E
:1025900053836483758318968D919C9119979187C5
:1025A0008087892B09F466C0D8011C968D919C9177
:1025B0001D97978386831286F8948CA5282F217007
:1025C00081FB992790F9291729F091E089279285B5
:1025D000916092874E855F8568897989452B462B66
:1025E000472B59F583FD19C08CA7118210828CA14D
:1025F0009DA1892BA9F1AEA1BFA1ED93FC93FFA3EF
:10260000EEA3CE010E94F831CE010E9430367894BC
:10261000DF91CF911F910F91089580914502909184
:10262000460291838083F0934602E09345027894BA
:10263000DF91CF911F910F9108958CA71182108285
:102640008CA19DA1892B89F0AEA1BFA1ED93FC9334
:10265000FFA3EEA37894DF91CF911F910F9108957E
:10266000FFA3EEA3FDA3ECA3CCCFFFA3EEA3FDA39A
:10267000ECA3CDCF87E10E94703BCF92DF92EF9227
:10268000FF920F931F93CF93DF93EC01EA8DFB8DA5
:102690008C8D80830E94981F0E891F89288D398D0B
:1026A0006B017C01C00ED11EE21EF31E8E859F853C
:1026B000A889B9890197A109B1098E879F87A88B3D
:1026C000B98B80FF0EC0CC82DD82EE82FF8281E07A
:1026D000DF91CF911F910F91FF90EF90DF90CF90FE
:1026E0000895892B8A2B8B2B59F1488559856A854A
:1026F0007B858A899B89AC89BD89840F951FA61F1C
:10270000B71F8A8B9B8BAC8BBD8B0C851D85012ED7
:10271000000C220B330B400F511F621F731F4887A1
:1027200059876A877B872B2F8C159D05AE052F094E
:1027300027FDC9CF8C839D83AE83BF8381E0C8CF43
:10274000CE010E94F831811102C080E0C1CF4C81DE
:102750005D816E817F81972F4C155D056E059F0908
:1027600097FFB6CF4C195D096E097F094038514C6F
:102770006F4F7F4F0CF0A7CF88E10E94703B46E07F
:1027800050E061EF73E1FC0180810C940A28CF9244
:10279000DF92FF920F931F93CF93DF93EC0161EFD2
:1027A00073E18C810E9439286C01F8840F2D10E0B0
:1027B000A8014D5F5F4F67EC73E188810E940A2892
:1027C000FC01D182C082F2826C857D85A8010396CE
:1027D000DF91CF911F910F91FF90DF90CF900C94DC
:1027E000913CFF920F931F93CF93DF938C0146E0B0
:1027F00050E061EF73E1FC0180810E940A28EC0146
:10280000F801F08461E0F11060E0F80184810E9439
:10281000461E6A837B838C838D81F11009C091E011
:10282000892B8D83DF91CF911F910F91FF90089598
:1028300099E0892B8D83DF91CF911F910F91FF90AC
:1028400008950F931F93CF93DF938C0162E576E297
:10285000FC0180810E943928EC010E94DE359091B4
:1028600000028A8D981303C08FEF80930002F80155
:1028700084819581A681B781888B998BAA8BBB8B2C
:102880008C839D83AE83BF8380859185A285B3852C
:102890008C879D87AE87BF8784858E8F91E0980F48
:1028A0009D8F4089518962897389488759876A87D2
:1028B0007B87248935893F8B2E8B208D318D398FF5
:1028C000288F948D9C8F811105C0DF91CF911F912E
:1028D0000F910895CE01DF91CF911F910F910C942C
:1028E00030368BE10E94703B8F929F92AF92BF92E5
:1028F000FF920F931F93CF93DF93EC0161EF73E18E
:1029000088810E9439288C01F88483E08F1508F4AF
:1029100084C0F8018581867009F07FC08C849D8415
:10292000AE84BF848C819D81AE81BF81892B8A2B2F
:102930008B2B09F074C0E6E4F6E0A591B4911196F2
:102940008C9180FD04C060E088E00E94461E60E03B
:1029500089E00E94461E60E08AE00E94461E60E018
:102960008BE00E94181B80E58CBD1DBC8114F2E138
:102970009F06FAE7AF06B10408F041C0811489E070
:1029800098068DE3A806B10418F5E0E88E16E4E891
:102990009E06EEE1AE06B104C0F5F0E48F16F2E457
:1029A0009F06FFE0AF06B10468F580E2881681EA71
:1029B000980687E0A806B10458F590E0E0E98E1685
:1029C000E0ED9E06E3E0AE06B10428F583E002C028
:1029D00090E080E0CF2DCC0FCC0FC065C82BF80164
:1029E000C0839183858184608583DF91CF911F911E
:1029F0000F91FF90BF90AF909F908F90089591E0BE
:102A000080E0E8CF90E081E0E5CF91E081E0E2CFA7
:102A100091E082E0DFCF82E0DDCF0E9471148EE290
:102A20000E94703B6F927F928F929F92AF92BF9263
:102A3000CF92DF92EF92FF920F931F93CF93DF938A
:102A40004C01E62E142F6901DC0115967C90159738
:102A5000872D867009F451C071FC39C0F401908152
:102A600081819CBD8DBDF72DF1706F2E70FCC8C0AB
:102A7000EE2009F49CC08FEF810F112351F0F60175
:102A800090819EBD0DB407FEFDCF9EB59193815000
:102A9000B8F7662091F1072D069506950695402F0B
:102AA00040954170D40112966D917D918C91DF918A
:102AB000CF911F910F91FF90EF90DF90CF90BF903B
:102AC000AF909F908F907F906F900C94511BED91E1
:102AD000FC91418542706681778180850E94511BFF
:102AE000B72DB1706B2E70FC17C0D401CD91DC9165
:102AF000AA24AA94A10E111126C0DF91CF911F9193
:102B00000F91FF90EF90DF90CF90BF90AF909F908C
:102B10008F907F906F900895072D069506950695E6
:102B2000402F4170F4016281738184810E94511BA6
:102B3000D401CD91DC91AA24AA94A10E112309F409
:102B4000AECF66246394B12C8FEFA81AB80AAC0CF0
:102B5000BD1CD601FC9008E010E0898580FF35C0DF
:102B6000EE81FF81888580834F2D40786B817C8149
:102B70008D810E94511BFF0CEE81FF81888580832F
:102B8000110FE881F98190818A81892391E009F40C
:102B900090E0192B015009F7EE2011F0F601108397
:102BA000FFEFCF1ADF0AAC14BD0499F672CFF6011D
:102BB0009601210F311D2E173F0709F46ACF81912D
:102BC0008EBD0DB407FEFDCFF6CF4F2D40786B8143
:102BD0007C818D810E94511BFF0CEE81FF818885D5
:102BE0008083110FE881F98190818A81892391E0A6
:102BF00009F490E0192BEE81FF8188858083CACF8C
:102C000073FA442740F9F4016281738184810E9440
:102C1000511B662463942CCFCF93DF93EC0161EFBB
:102C200073E188810E943928288539854C8160E0CC
:102C3000DF91CF910C941215FF920F931F93CF93B6
:102C4000DF93EC01188161EF73E1812F0E94392835
:102C50000C81F884C9852F2D3C2F402F61E00E9404
:102C60001215CF93FF921F920F931F921F9389EE1D
:102C700095E09F938F930E94CC328DB79EB70896B4
:102C80000FB6F8949EBF0FBE8DBFDF91CF911F91FD
:102C90000F91FF900895AF92BF92DF92EF92FF9253
:102CA0000F931F93CF93DF93FC01A485B585968581
:102CB00047855089E18822893389F488A588B688B8
:102CC0007789008D118DD28C808586279C9384FD19
:102CD00020C085FD22C086FD24C087FD26C09C93B0
:102CE000862F8295807F808768279C9364FD2AC009
:102CF00065FD25C066FD1CC067FD1EC09C93DF916D
:102D0000CF911F910F91FF90EF90DF90BF90AF9008
:102D10000895EA01E88285FFDECFE901F88286FFA7
:102D2000DCCFE501788387FFDACFE801D882D7CFFF
:102D3000F501708367FFE2CFE801D882DFCFE901B8
:102D4000F882D8CFFA01E082D3CF5F926F927F9260
:102D50008F929F92AF92BF92CF92DF92EF92FF92AB
:102D60000F931F93CF93DF938C01FC01C080D18020
:102D7000E280F38084809580A680B78066246A9480
:102D8000660E662301F1EA01712CFFEF6F1A7F0ACC
:102D9000640E751E59900E94981FDC01CB018C199E
:102DA0009D09AE09BF0988159905AA05BB0598F3C9
:102DB000652DC8010E944B160E94981F6B017C0173
:102DC000C615D70539F7F801C082D182E282F382B5
:102DD000DF91CF911F910F91FF90EF90DF90CF90F7
:102DE000BF90AF909F908F907F906F905F9008956D
:102DF000EF92FF920F931F93CF93DF938C0169EAB9
:102E00007CE2FC0180810E9439287C018FE090E007
:102E10000E94A932EC0188E893E19E878D87F80132
:102E20008089880F8C8761E084810E94181B6E83E3
:102E30007F83888761E0F80184810E94461E688351
:102E400079838A8361E0F80180850E94181B698775
:102E50007A878B8761E0F80180850E94461E6B832C
:102E60007C838D83F701D283C183838181608383D7
:102E7000DF91CF911F910F91FF90EF9008950F93E5
:102E80001F93CF93DF93EC0167E777E188810E947E
:102E900039288C01FC0161857285838541E00E949F
:102EA000511B488559856C81C801DF91CF911F91D5
:102EB0000F910C94A5160F931F93CF93DF93EC0102
:102EC00067E777E188810E9439288C01FC016185E0
:102ED0007285838540E00E94511B488559856C812D
:102EE000C801DF91CF911F910F910C94A516CF923D
:102EF000DF92EF92FF920F931F93CF93DF93EC013A
:102F00004BE150E067E777E188810E940A288C0155
:102F100060E08C810E94461EF8016187728783877A
:102F200060E088850E94461EF80164877587868761
:102F300060E08C850E94461EF8016787708B818B4C
:102F400060E088890E94461EF801628B738B848B37
:102F500060E08C890E94461EF801658B768B878B1A
:102F600060E0888D0E94461EF801608F718F828F0D
:102F7000F8940E94981F6B017C0160E0C8010E94D8
:102F80004B160E94981F7894DC01CB018C199D0987
:102F9000AE09BF09CC8CDD8CEE8CFF8C8C159D05A9
:102FA000AE05BF0548F4C81AD90AEA0AFB0AF801B7
:102FB000C482D582E682F782DF91CF911F910F9173
:102FC000FF90EF90DF90CF900895DF92EF92FF9205
:102FD0000F931F93CF93DF93EC01D88883E08D1577
:102FE000B0F161EF73E188810E9439287C018AE0A9
:102FF00090E00E94A9328C0161E08C810E94181B34
:10300000F80160837183828360E088850E94461E98
:10301000F80163837483858360E08C850E94461E7B
:10302000F801668377838087D186F7018581982FA1
:10303000967081F4F7011183008382608583DF91AC
:10304000CF911F910F91FF90EF90DF9008958BE14A
:103050000E94703B0E947114CF92DF92EF92FF9218
:10306000CF93DF93EC010E94981F6B017C019E01BE
:10307000A0E8BEE30E941A3C20E432E44FE050E0B6
:103080000E94F13BC20ED31EE12CF12C0E94981F2E
:103090006C157D058E059F05C8F3DF91CF91FF90DC
:1030A000EF90DF90CF9008950F931F93CF93DF930E
:1030B000EC01062F18E01DC06B817C818D8140E002
:1030C0000E94601B000F8D859E850E942C186E81CA
:1030D0007F81888541E00E94021B8D859E850E942C
:1030E0002C18688179818A8140E00E94601B115010
:1030F00049F007FFE1CF69857A858B8541E00E9421
:10310000021BE0CF69857A858B8541E00E94021B16
:103110008D859E850E942C186E817F81888541E077
:103120000E94021BE985FA8510818B8518238D8505
:103130009E850E942C18688179818A8140E00E94D6
:10314000601B69857A858B8541E00E94021B111105
:1031500005C0DF91CF911F910F91089585E20E94E4
:10316000703B4F925F926F927F928F929F92AF923D
:10317000BF92CF92DF92EF92FF920F931F93CF9364
:10318000DF938C01562E3A01FC0180809180A28051
:10319000B380C480D580E680F780EA012196FA01E9
:1031A0004080642D607F0E94462F0E94981FDC01A2
:1031B000CB0188199909AA09BB098C159D05AE0593
:1031C000BF0598F3642D6295607FC8010E94462F69
:1031D0000E94981F6B017C01F80180849184A28475
:1031E000B384F1E05F1639F15A945A94852D90E03A
:1031F0000296680E791E5990652D607FC8010E9465
:10320000462F0E94981FDC01CB018C199D09AE0945
:10321000BF0988159905AA05BB0598F3652D629528
:10322000607FC8010E94462F0E94981F6B017C019D
:10323000C615D70501F7F801C082D182E282F38278
:10324000DF91CF911F910F91FF90EF90DF90CF9082
:10325000BF90AF909F908F907F906F905F904F90B6
:1032600008950F931F93CF93DF938C0180913F02BA
:1032700090914002892B09F04BC060913E0270E0B2
:10328000623071052CF482E080933E0262E070E0CF
:10329000E0913A02F0913B024DB75EB741505F4F6B
:1032A00044275A959F01C0E0D0E0C901860F971FBF
:1032B0004817590730F121969C01C115A4E0DA079F
:1032C000A1F78E1B9F0B0E94A932D0934002C0939E
:1032D0003F0290933D0280933C020E945128F801E6
:1032E00080819181A281B3818093410290934202B7
:1032F000A0934302B0934402DF91CF911F910F91AD
:103300000895209711F0C901DCCF80E10E94703B45
:103310008DE00E94703BCF932091380230913902AA
:10332000232B91F4FC01C0818C2F90E0880F991F12
:10333000880F991F0E94A932909339028093380216
:10334000C0933702CF9108958AE00E94703B80912C
:103350003F02909140029F938F9321E0309127028A
:10336000311101C020E01F922F93209144022F932E
:10337000209143022F93209142022F9320914102EA
:103380002F9321E0892B09F420E01F922F938CE0EA
:1033900096E09F938F930E94CC328DB79EB70C9688
:1033A0000FB6F8949EBF0FBE8DBF0895CF93DF93E5
:1033B000EC01988140913702A0913802B091390216
:1033C0000BC0FD0184E0989FE00DF11D11242081C8
:1033D00031812617370741F09F5F941790F380E003
:1033E00090E0DF91CF910895988382819381DF915E
:1033F000CF910895CF92DF92EF92FF926B017C0103
:1034000009C00E94981F292F6C157D058E052F0974
:1034100027FF09C08091BC0087FFF3CFFF90EF909A
:10342000DF90CF90089580E30E94703B24EA2093C0
:10343000BC000E94FA198091B90090E0A0E0B0E0D1
:1034400080319105A105B10521F00897A105B105CD
:1034500009F408958FE20E94703B7F928F929F92B1
:10346000AF92BF92CF92DF92EF92FF920F931F9392
:10347000CF93DF93782EC62F942EB52E822E0E94E6
:10348000981F6B017C0120E8C20E28E3D21E21E0C8
:10349000E21EF11CC701B6010E94161A7092BB0011
:1034A00084E88093BC00C701B6010E94FA19AA24DF
:1034B000AA94AC0ECC23B1F0C92DDB2DB12C8FEF2B
:1034C000A81AB80AAC0EBD1E94E8992E8991809373
:1034D000BB009092BC00C701B6010E94FA19AC165D
:1034E000BD06A1F7C701B6010E94161A872D81609B
:1034F0008093BB0084E88093BC00C701B6010E94A2
:10350000FA19DFEFD80D882009F15801CD2F84EC8E
:10351000982ECC2369F09092BC00C701B6010E949E
:10352000FA198091BB00F50181935F01C15099F7B1
:10353000F801ED0FF11DEF0184E88093BC00C70195
:10354000B6010E94FA198091BB00888384E98093B8
:10355000BC00DF91CF911F910F91FF90EF90DF9012
:10356000CF90BF90AF909F908F907F900895BF9223
:10357000CF92DF92EF92FF920F931F93CF93DF933F
:10358000D82FC62FB42E152F0E94981F6B017C01D7
:1035900020E8C20E28E3D21E21E0E21EF11CC70182
:1035A000B6010E94161AD093BB0084E88093BC0039
:1035B000C701B6010E94FA190FEF0C0FCC23A9F036
:1035C000CB2DD12F10E00F5F1F4F0C0F1D1F84E874
:1035D000B82E89918093BB00B092BC00C701B601A0
:1035E0000E94FA19C017D107A1F784E98093BC00A3
:1035F000DF91CF911F910F91FF90EF90DF90CF90CF
:10360000BF900895FB012FB7F8949281141644F4EB
:10361000982B809592839181892381832FBF089570
:103620008095982392839181892381832FBF089568
:103630008036A0F567FD32C0E82FE695E695E69561
:10364000F0E0EE0FFF1FEC5BF94FA591B4911097DE
:1036500029F1877021E030E0A90102C0440F551F15
:103660008A95E2F7CA014FB7F89412963C911297E7
:10367000662381F0382B282F209512963C931297C1
:1036800011963C911197232311962C9311974FBFBC
:10369000BD010895282F20953223EFCF8BE20E94A1
:1036A000703BFB012FB7F8949281411105C08095C2
:1036B000892382832FBF0895892B82832FBF08958A
:1036C000FB012FB7F8949281411109C0382F309532
:1036D000932392839181892B81832FBF0895982B07
:1036E00092839181892B81832FBF0895CF92DF929E
:1036F000EF92CF93DF93EC0161E088859985AA85ED
:10370000BB85892B8A2B8B2B09F460E08C810E946E
:10371000461E6B01E82E44E250E066E77BE18881BB
:103720000E940A28FC01C48AD58AE68A21E04885DD
:1037300059856A857B85452B462B472B09F420E06C
:103740004C855D856E857F85452B462B472BB1F4D7
:1037500030E0232BFC0123A3488959896A897B899E
:10376000478B508F618F728F6AE070E04F96DF91C8
:10377000CF91EF90DF90CF900C949B2830E1E9CF70
:10378000CF93DF93EC0166E77BE188810E943928C3
:10379000F894FC01278D30A1232B69F44C815D81C5
:1037A0006E817F81FC01438F548F658F768F789473
:1037B000DF91CF91089584E10E94703B8F929F9298
:1037C000AF92BF92CF92DF92EF92FF921F93CF936F
:1037D000DF93EC01EF8CF8A0E114F10409F4F0C0E0
:1037E000F7018081918198A38F8F86809780A08434
:1037F000B18411E081149104A104B10409F4A1C0C1
:103800006C897D898E89412F0E94511B80914502D0
:1038100090914602F70191838083F0924602E092F4
:10382000450281149104A104B104E9F08B8D9C8DB3
:10383000AD8DBE8D88169906AA06BB06A0F44F89E9
:10384000588D698D7A8D411551056105710509F411
:103850005BC08C819D81AE81BF81480F591F6A1F5B
:103860007B1F166022C08BA131E081149104A1045A
:10387000B10409F068C084FB992790F921E09227F0
:10388000391709F443C04F89588D698D7A8D4115D8
:10389000510561057105D1F18C819D81AE81BF819A
:1038A000480F591F6A1F7B1F1460EF8DF8A13097D6
:1038B00009F077C02BA1488B598B6A8B7B8B2071C9
:1038C000212B2BA311FF5FC0880D991DAA1DBB1DC5
:1038D00012FD52C029E130E33B832A838C839D8310
:1038E000AE83BF8388869986AA86BB868B8D9C8D86
:1038F000AD8DBE8D88199909AA09BB098C879D8752
:10390000AE87BF8781E011C012608BA1EF8DF8A157
:103910003097D9F4188A198A1A8A1B8A8071812BE8
:103920008BA3812F827011FD34C0DF91CF911F9145
:10393000FF90EF90DF90CF90BF90AF909F908F90CF
:10394000089510E05DCF30E096CF428153816481CD
:103950007581488B598B6A8B7B8B8071912F94601A
:10396000892B8BA311FF0FC08C819D81AE81BF81FC
:10397000880D991DAA1DBB1D2B2F84179507A6071F
:10398000270B27FDA7CF4C835D836E837F8381E068
:10399000CCCF40E050E0BA018C819D81AE81BF81E7
:1039A00093CFC280D380E480F580872F4C155D05CE
:1039B0006E058F0987FD07C08BA1B701A601C9CF8E
:1039C00085E10E94703B83E10E94703B8EE10E9482
:1039D000703B0F931F93CF93DF93FC01A189B289B2
:1039E0008D919C911197928B818B16968D919C91C4
:1039F0001797C085D185228521113FC02FB7F89434
:103A0000AC015527598348832FBF2091450230913F
:103A1000460211963C932E93B0934602A093450222
:103A2000A189B289109759F52785308982179307A4
:103A300041F083859485A585B6850097A105B105DC
:103A400031F480E0DF91CF911F910F91089544816F
:103A5000558166817781840F951FA61FB71F8483C8
:103A60009583A683B78386EE9CE19383828381E06E
:103A7000DF91CF911F910F9108958883C6CF129641
:103A80004D915D916D917C911597278530898217B5
:103A9000930741F083859485A585B6850097A10598
:103AA000B10551F4448355836683778381E0DF91C8
:103AB000CF911F910F91089504811581268137813F
:103AC000800F911FA21FB31F2B2F84179507A607E6
:103AD000270B27FFE7CF8DE10E94703BEF92FF920B
:103AE0000F931F93CF93DF937C0168EE7DE1DC01A0
:103AF0008C910E9439288C010E94B528EC01F701B5
:103B000084819581A681B7818A839B83AC83BD83A1
:103B1000808591859F838E83F89419821882D801BD
:103B200051968D919C915297892BB9F15396ED91B5
:103B3000FC915497D183C0835496DC93CE935397D2
:103B400080E090E07894892B39F4DF91CF911F9138
:103B50000F91FF90EF900895C8010E94DE35D801C3
:103B600012968D919C911397865E9C41F1F08A810B
:103B70009B81AC81BD8129EE3CE1F8013383228336
:103B800084839583A683B783C801DF91CF911F916A
:103B90000F91FF90EF900C943036F801D48BC38BCB
:103BA000D28BC18B81E090E0CDCF8A819B81AC81AB
:103BB000BD81F8014481558166817781272F48179F
:103BC00059076A072B0B27FFD6CF8DE10E94703B68
:103BD000CF92DF92EF92CF93DF93EC014885598526
:103BE0006A857B852C858C810E94C9286B01E82E13
:103BF00045E150E068EE7DE188810E940A28FC01E1
:103C0000C086D186E28688899989908B87878C893E
:103C10009D89AE89BF8983879487A587B68789EEFA
:103C20009CE19383828368E070E0CF014196DF914D
:103C3000CF91EF90DF90CF900C949B28B0990FC05C
:103C400080914702909148020196109206021092CC
:103C50000502909308028093070281E0089581E0B5
:103C600086BB80914702909148020196909348024A
:103C70008093470220E030E830930602209305024B
:103C8000909308028093070281E00895803678F5CA
:103C9000E82FE695E695E695F0E0EE0FFF1FEC5B6A
:103CA000F94FA591B491109711F1877021E030E0A0
:103CB000A90102C0440F551F8A95E2F7CA013FB718
:103CC000F89412962C91129761110FC040952423FD
:103CD00012962C93129711962C911197282B1196CE
:103CE0002C9311973FBFBD010895242BF1CF8CE297
:103CF0000E94703B1F920F920FB60F9211240BB6C9
:103D00000F92EF92FF920F931F932F933F934F9336
:103D10005F936F937F938F939F93AF93BF93CF9353
:103D2000DF93EF93FF930DC07A018091840090910F
:103D300085008E199F0997FD7CC07894B2999AC02E
:103D4000F894C0912202D0912302EA81FB8130973E
:103D500009F0ADC0EA8DFB8D2C8D20838E859F856B
:103D6000019709F4C1C09F878E8788859985AA85A8
:103D7000BB854C815D816E817F81480F591F6A1F11
:103D80007B1F4C835D836E837F8320832CA525FF5F
:103D90000EC00C851D85012E000C220B330B800FED
:103DA000911FA21FB31F88879987AA87BB87E881C5
:103DB000F9810481158126813781872F40175107AA
:103DC0006207830B87FDB0CF7801F0932302E09365
:103DD0002202A0912402B091250214960D911D910A
:103DE0002D913C911797872F401751076207830B3E
:103DF00087FFFD01DF010190F081E02D0481158135
:103E000026813781872F401751076207830B87FF71
:103E1000F1CFF983E883CD93DC93D0932502C0934F
:103E2000240280918400909185008E199F0997FF4C
:103E300084CF863A9F4F0CF06AC0F0928900E092DE
:103E40008800FF91EF91DF91CF91BF91AF919F914A
:103E50008F917F916F915F914F913F912F911F9122
:103E60000F91FF90EF900F900BBE0F900FBE0F9031
:103E70001F901895F8948091840090918500970187
:103E8000281B390B2038314CDCF12091260227FF0A
:103E900043C09C01205C304E30938B0020938A00FD
:103EA00024E026BB90938900809388003ECFCE010A
:103EB00019954C815D816E817F81811178CFE88178
:103EC000F981E480F580F0932302E093220280914F
:103ED000240290912502C817D90709F026CFF09344
:103EE0002502E093240221CFCE010E94F831EA8D11
:103EF000FB8D9C8D90834C815D816E817F81DDCFB8
:103F0000209127022111C1CF8AE20E94703B789450
:103F1000B299B0CFF89409CF9C012854344F309314
:103F20008B0020938A0024E026BB7C01F39485CF8C
:103F30002FB7F894609184007091850080914702BA
:103F400090914802B09902C02FBF08952FBF7F3FC4
:103F5000E1F30196089578940E9489392FEF260F96
:103F60006623C1F0FC018FEF9FEF31918327082E6C
:103F70008295807F8025092E982F82958F70082644
:103F8000869598278927880F880F880F80252150CC
:103F900060F708958FEF9FEF08956F927F928F9251
:103FA0009F92AF92BF92CF92DF92EF92FF920F93C8
:103FB0001F93FC0183818F9382818F9384813501CC
:103FC0004601680E711C811C911CD401C301BF9372
:103FD000AF939F936F9281818F9380818F931F9373
:103FE0000F93FF92EF925F934F933F932F931F9204
:103FF0006F9381EC95E09F938F930E94CC328DB7A5
:104000009EB744960FB6F8949EBF0FBE8DBF1F910A
:104010000F91FF90EF90DF90CF90BF90AF909F9067
:104020008F907F906F900895CF93DF93EC016A8D0E
:10403000662309F453C0FC0150E031E020E0A38D79
:10404000B48D4C91958D942309F0532B2F5F330F32
:1040500033962613F4CF2C85922F952729F08D8542
:10406000852780959823D9F4888D5D8787FD03C0C7
:10407000815070F1888F4C815D816E817F81888550
:104080009985AA85BB85840F951FA61FB71F8C83B2
:104090009D83AE83BF8381E0DF91CF910895982FF8
:1040A000909529238523822B8C879E859830E0F676
:1040B00021E0290F2E87FE01E90FF11D878710925D
:1040C000260281E0809349028FEF888F5D87D3CFEE
:1040D0001092260291E090934902CCCF50E0BBCFE2
:1040E0000F931F93CF93DF938C016DEA70E2FC0175
:1040F00080810E943928EC010E94DE35F80184811C
:104100009581A681B7818C839D83AE83BF834085D3
:10411000518562857385488759876A877B8780893F
:104120008D878C871E861F8A8EEF888F8485898F66
:1041300087FD10C0452B462B472B29F4DF91CF91EB
:104140001F910F910895CE01DF91CF911F910F9193
:104150000C9430368FE10E94703BCF93FC01C481F8
:10416000C930B8F44C2F50E09A01220F331F420F90
:10417000531F455E5F4F6DEA70E2FC0180810E9433
:104180000A28FC01C28F24E130E233832283CF91DD
:10419000089581E20E94703B0F931F93CF93DF93AA
:1041A0008C016DEA70E2DC018C910E943928FC01DF
:1041B000D80114969C91828D9817B8F4292F30E07D
:1041C000E901CC0FDD1F2C0F3D1FEF01C20FD31FE4
:1041D000F801648580850E94181B6B8F7C8F8D8F02
:1041E000DF91CF911F910F91089580E20E94703B63
:1041F000FC014481558166817781208580810C9402
:10420000C928CF92DF92EF92FF92CF93DF93FC0108
:10421000A085B18582858C93968581E089278687E4
:10422000C82FC170C688D788E08CF18C97859F5FB6
:10423000D1899D1708F05FC0892F86958695869550
:10424000DF01A80FB11D5A962C9130E0892F87709D
:1042500002C0359527958A95E2F72170B701A6012E
:10426000C217A9F033C0892F869586958695DF0100
:10427000A80FB11D5A962C9130E0892F877002C08B
:10428000359527958A95E2F72170C2131FC04C0D12
:104290005D1D6E1D7F1D9F5F9D1728F386EF93E2C6
:1042A0009383828384819581A681B781480F591FAA
:1042B0006A1F7B1F448355836683778381E0DF9188
:1042C000CF91FF90EF90DF90CF90089597878481F2
:1042D0009581A681B781480F591F6A1F7B1F4483B0
:1042E00055836683778381E0DF91CF91FF90EF90D4
:1042F000DF90CF900895B701A601D0CF6F927F9243
:104300008F92CF92DF92EF92FF92CF93DF93EC01E7
:1043100060E08C810E94461E3B01882EC884D984AF
:10432000EA84FB84D7FC24C0A601415F5F4F6EE79F
:1043300071E288810E940A28FC0160827182828277
:10434000D686C5868C859D85948383838889998943
:10435000AA89BB8981879287A387B487DF91CF9190
:10436000FF90EF90DF90CF908F907F906F900895A7
:1043700084E20E94703BCF92DF92EF92FF920F9304
:104380001F93CF93DF93EC01E885F9858A858083BD
:104390000E94981F3E8521E023272E872F852F5FBF
:1043A0002F87213009F45CC02530E0F40C811D8199
:1043B0002E813F814A895B896C897D89DB01CA0135
:1043C000800F911FA21FB31F8C839D83AE83BF8379
:1043D00081E0DF91CF911F910F91FF90EF90DF90DF
:1043E000CF900895CC80DD80EE80FF80AB01BC01D2
:1043F0004C195D096E097F098E899F89A88DB98D39
:10440000481B590B6A0B7B0BDB01CA010296A11DED
:10441000B11DB7FD34C0B595A79597958795B5950E
:10442000A795979587950A891B892C893D89800FC7
:10443000911FA21FB31F8E8B9F8BA88FB98F21E076
:1044400031E23B832A834C0D5D1D6E1D7F1D840F61
:10445000951FA61FB71F8C839D83AE83BF83B8CFE4
:104460000C811D812E813F81AB01BC01401B510B92
:10447000620B730B4E8B5F8B688F798F9BCFDB0149
:10448000CA010596A11DB11DC6CFEF92FF920F93F1
:104490001F93CF93DF937C0166EE72E2FC01808173
:1044A0000E943928EC011E8511FF07C0DF91CF91D2
:1044B0001F910F91FF90EF900895F701048160859F
:1044C0007185F4840B3008F045C0FAE0FF1508F45C
:1044D00041C0402F50E04A960E94913C1F861173C4
:1044E00012601E87802F880F880F880F898BFF0C22
:1044F000FF0CFF0CF88A002349F08A8D8F738A32F3
:1045000029F48BEB91E29B838A830CC08A899B8977
:10451000AC89BD898E8B9F8BA88FB98F81E091E28A
:104520009B838A83F8940E94981FDC01CB018058FA
:10453000934FAF4FBF4F8C839D83AE83BF83CE011C
:104540000E9430367894DF91CF911F910F91FF90A8
:10455000EF90089582E20E94703B0F931F93CF93D8
:10456000DF938C016DEA70E2DC018C910E943928A6
:10457000EC01D8011496EC918F898E0F8F8BF894F3
:104580008E85E817D0F48E1BF0E03F96EC0FFD1FF0
:10459000DE011F962FEF280F30E0205F3F4F2C0FDA
:1045A0003D1F91919D93A217B307D9F78E877894F9
:1045B000DF91CF911F910F9108951E868EEF888F06
:1045C0007894DF91CF911F910F9108957F928F92F0
:1045D0009F92AF92BF92CF92DF92EF92FF920F9392
:1045E0001F93CF93DF93EC0144E250E066EE72E25A
:1045F00088810E940A288C0178848C809D80AE80FE
:10460000BF80CC84DD84EE84FF8461E0711001C042
:1046100060E0882D0E94181BF801638774878587E6
:1046200061E08C2D0E94461EF801608771878287A9
:1046300088899989AA89BB89828B938BA48BB58B36
:10464000711018C091E08C149D04AE04BF04C1F039
:1046500080E0892BF8018687DF91CF911F910F9120
:10466000FF90EF90DF90CF90BF90AF909F908F9092
:104670007F90089591E18C149D04AE04BF0441F72E
:1046800080E2E7CFCF93DF93EC018E8585FD0DC0EF
:10469000688579858A8541E00E94511B8E858073EB
:1046A00081608E87DF91CF910895688579858A85AD
:1046B00041E00E94601B8E85807381608E87DF9150
:1046C000CF910895CF93DF93FC01A385B4855C91CE
:1046D0008785982F977021E030E001C0220F9A95CE
:1046E000EAF7982F969596959695DF01A90FB11D3B
:1046F0005A969C915A9745854523E1F0292B5A9665
:104700002C938F5F90898917E8F4878744815581BE
:104710006681778186899789A08DB18D840F951FD9
:10472000A61FB71F84839583A683B78381E0DF919B
:10473000CF910895209529235A962C938F5F9089C5
:10474000891718F3EF01CF010E9442238E858860FC
:104750008E871092260281E080934A0280E0DF91EA
:10476000CF910895CF93DF93FC01A385B4859C91ED
:1047700085858923E9F0868584608687878591E031
:10478000980F9787803408F5448155816681778139
:1047900086899789A08DB18D840F951FA61FB71F9D
:1047A00084839583A683B78381E0DF91CF910895B9
:1047B000868582FFE3CF178682E693E29383828326
:1047C000CF01DF91CF910C946223EF01108ACF01CA
:1047D0000E9442238E8588608E871092260281E097
:1047E00080934A0280E0DF91CF9108951F93CF9389
:1047F000DF93EC011889112369F14E8545FD23C033
:104800001F8682EB93E29B838A838E899F89A88D82
:10481000B98D880F991FAA1FBB1F880F991FAA1F48
:10482000BB1F4C815D816E817F81840F951FA61F08
:10483000B71F8C839D83AE83BF8311E0812FDF91EF
:10484000CF911F91089540716B857C858D850E9465
:10485000021BD6CF0E9442238E8588608E871092DD
:10486000260281E080934A02812FDF91CF911F9130
:104870000895FC011092260281E080934B02818D05
:104880008160818F448155816681778180859185A2
:10489000A285B385840F951FA61FB71F84839583B8
:1048A000A683B78381E008950F931F93CF93DF937F
:1048B0008C0166E974E2FC0180810E943928EC01D8
:1048C0000E94DE35F80184819581A681B7818C83B1
:1048D0009D83AE83BF8380859185A285B3858887BC
:1048E0009987AA87BB87892B8A2B8B2B29F4DF9189
:1048F000CF911F910F91089584859585A685B785E1
:104900008C879D87AE87BF8780899189A289B3896B
:10491000888B998BAA8BBB8B84898E8B1F8ACE0147
:10492000DF91CF911F910F910C943036FF920F932E
:104930001F93CF93DF93EC01F88483E08F15E0F0B1
:104940004AE150E066E974E288810E940A288C01FD
:1049500089E394E2F8019383828361EF73E18C81B0
:104960000E943928F801958B848BF08EDF91CF91CE
:104970001F910F91FF90089587E20E94703BCF93A3
:10498000DF93EC016B817C818D8140E00E94601B94
:104990008D859E850E942C186E817F81888541E0DF
:1049A0000E94021B8D859E850E942C1869857A8540
:1049B0008B8541E0DF91CF910C94021B1F93CF9325
:1049C000DF93EC01162F8D859E850E942C1869853A
:1049D0007A858B8541E00E94021B6E817F818885EC
:1049E00041E00E94021B8D859E850E942C186B81E0
:1049F0007C818D8140E00E94601B8D859E850E9498
:104A00002C18688179818A8140E00E94601B612FA7
:104A1000CE01DF91CF911F910C9454188F929F92E9
:104A2000AF92BF92CF92EF920F931F93CF93DF93EA
:104A3000EC01480159011F92EF92BF92AF929F92F1
:104A40000F937F936F935F934F931F92CF928BEC53
:104A500095E09F938F930E94CC328DB79EB70E96B0
:104A60000FB6F8949EBF0FBE8DBFE11009C08C85B4
:104A70009D85AE85BF8588169906AA06BB0688F473
:104A80008F898F5F8F8B9E898917B0F4DF91CF91CB
:104A90001F910F91EF90CF90BF90AF909F908F900C
:104AA000089588899989AA89BB8988159905AA05D5
:104AB000BB0530F31F8AEACF809127028111FACF1C
:104AC00086E20E94703B9F92AF92BF92CF92DF929C
:104AD000EF92FF920F931F93CF93DF93EC01C62EBB
:104AE000942ED52EB22E78016C85862F8160A82E4B
:104AF000C11085C06A2DCE010E94DE248FEF8B0D80
:104B0000BB2009F46EC06701C80ED11C69857A8587
:104B10008B8541E00E94021B08E010E08D859E8598
:104B20000E942C186E817F81888541E00E94021BC3
:104B30008D859E850E942C18110FE985FA8590813C
:104B40008B85892391E009F490E0192B68817981A4
:104B50008A8140E00E94601B015001F769857A85D7
:104B60008B8541E00E94021BCE14DF04F1F06B81C3
:104B70007C818D8140E00E94601B8D859E850E9416
:104B80002C186E817F81888541E00E94021B8D85F3
:104B90009E850E942C18688179818A8140E00E945C
:104BA000601BF70111937F01B1CF69857A858B85F1
:104BB00041E00E94021B8D859E850E942C186E810B
:104BC0007F81888541E00E94021B8D859E850E9421
:104BD0002C18688179818A8140E00E94601BF6016F
:104BE0001083CE01DF91CF911F910F91FF90EF9035
:104BF000DF90CF90BF90AF909F900C94BF24CE01D8
:104C00000E94DE24092D1D2DCA94D12CEFEFCE1A5F
:104C1000DE0AC00ED11EF80161918F01CE010E9403
:104C20005418C016D106B9F765CFDF92EF92FF9204
:104C30000F931F93CF93DF937C01C62FD42E152F94
:104C4000FC0164850E94DE240FEF0C0FCC2371F071
:104C5000CD2DD12F10E00F5F1F4F0C0F1D1F69913D
:104C6000C7010E945418C017D107C9F7C701DF91C7
:104C7000CF911F910F91FF90EF90DF900C94BF2484
:104C800049E150E060E476E2FC0180810E940A285C
:104C900028E939E2FC013383228323EB39E23387AD
:104CA00022870895CF93DC0114969C91149720E0FD
:104CB00030E0C22FF901EC5CF94FE4919E1741F00E
:104CC0002F5F3F4F20313105A1F78DE20E94703BED
:104CD00087E980937A002830E8F420917E0081E013
:104CE00090E00C2E01C0880F0A94EAF7822B809383
:104CF0007E004FE150E062E576E28C910E940A2846
:104D0000FC0188E996E293838283C28F81E0858FDC
:104D1000CF91089520917D003C2F377081E090E085
:104D200001C0880F3A95EAF7822B80937D00E1CF8E
:104D3000FC0180917A0086FF0EC084819581A68156
:104D4000B7818853984FAF4FBF4F84839583A68315
:104D5000B78381E00895828D90910002981781F0C9
:104D60009F3F59F780930002982F987090937B0093
:104D70008770806480937C0087ED80937A00DDCF1C
:104D80008FEF809300022091780030917900858D1B
:104D9000968D891780F544895589240F351F8F5FBB
:104DA000358B248B858F891760F186899789281721
:104DB0003907C8F1808D918D82179307A0F1138E6A
:104DC0001092260281E080934D02408951896289C8
:104DD000738980859185A285B385840F951FA61F51
:104DE000B71F808B918BA28BB38B84839583A68313
:104DF000B78381E0089581E0358B248B858F8917F7
:104E0000A0F6448155816681778184859585A68544
:104E1000B785840F951FA61FB71F84839583A6832C
:104E2000B78381E00895838D8F5F838F948D891779
:104E300038F2809127028111C2CF8AE10E94703B33
:104E4000EF92FF920F931F93CF93DF938C0160E457
:104E500076E2FC0180810E943928EC01F8948E8969
:104E600080FF13C07E01F8E0EF0EF11CC7010E9425
:104E7000DE35F80184819581A681B7818C879D8775
:104E8000AE87BF87C7010E9430367894DF91CF91FB
:104E90001F910F91FF90EF9008951F93CF93DF9391
:104EA000EC01162FAC89BD891097B9F01296ED91DF
:104EB000FC9113978D919C9111979D8B8C8B1196E2
:104EC0001C921E9213961C921E921297612FCD0176
:104ED0001995AC89BD89109749F71092260281E097
:104EE00080934C02DF91CF911F910895EF92FF9232
:104EF0001F93CF93DF937C01FC01108160E476E285
:104F0000812F0E943928EC01F8948E8980FF09C016
:104F1000F70164816F8B8A7F84608E8BCE010E9443
:104F20004D27CE010E94DE35CE0108960E94DE3567
:104F30001E8A8F8978941F921F921F921F921F9230
:104F40008F931F921F921F921F9383EF95E09F9361
:104F50008F930E94CC328DB79EB70C960FB6F89403
:104F60009EBF0FBE8DBFDF91CF911F91FF90EF903D
:104F70000895CF93DF93EC010E94DE35CE010896B1
:104F80000E94DE35EC89FD89309751F09081818156
:104F90001382128211821082E92FF82F3097B1F715
:104FA0001D8A1C8A188E1F8A1E8ADF91CF91089550
:104FB0000F931F93CF93DF938C0160E476E2FC01A3
:104FC00080810E943928EC01F8940E94B92781E081
:104FD0008E8BF80184819581A681B7818C839D8316
:104FE000AE83BF8380859185A285B385888B998B9D
:104FF000AA8BBB8B892B8A2B8B2B19F0CE010E949D
:105000003036F8018485888F7894DF91CF911F9195
:105010000F910895CF93DF9390913702891730F560
:10502000C82FD0E0CC0FDD1FCC0FDD1FE091380280
:10503000F0913902EC0FFD1F80819181892BB1F431
:1050400080913F0290914002892B81F471836083AB
:10505000CA010E94A9322091380230913902C20F50
:10506000D31F9B838A83DF91CF9108958BE00E94A9
:10507000703B90913702891788F4E0913802F091E3
:10508000390294E0899FE00DF11D11248081918106
:105090008617970719F48281938108958CE00E9406
:1050A000703BCF92DF92EF92FF92CF93DF93C0914C
:1050B0003F02D09140022097B9F121976E01E12C77
:1050C000F12CA0913E02B0E02097D9F020E030E032
:1050D00040E050E0BA0180913C0290913D02FC0119
:1050E000E20FF31F4F5F5F4F6F4F7F4F2A0F3B1F42
:1050F000820F931F918380834C155D056E057F059C
:1051000050F380913C0290913D02CA9FF001CB9FE9
:10511000F00DDA9FF00D1124E80FF91F11821082B3
:105120009093460280934502DF91CF91FF90EF90DC
:10513000DF90CF900895FC011382128211821082B9
:105140006F3F710509F07CF480913F02909140021D
:10515000892B49F480913E0290E08617970714F45A
:1051600060933E0208950E9404312FB7F894809115
:10517000450290914602009749F0FC01408151811F
:1051800050934602409345022FBF08958FE00E943E
:10519000703BCF92DF92EF92FF921F93CF93DF93FA
:1051A0006A017B016CE576E0FB019491981749F068
:1051B000675F7F4FF6E06C3E7F07B1F784E30E94A4
:1051C000703BFB013896949191FF1AC030EAC316E8
:1051D0003FE5D306E104F10408F483C0C0E8CC162F
:1051E000CEE7DC06C1E0EC06F10408F090C0D0E4A4
:1051F000CD16DFEBDD06E104F104C8F414E022C0B3
:10520000F8EBCF16F7E4DF06E104F10490F0A0EC30
:10521000CA16AEE3DA06A1E0EA06F10408F475C0A6
:10522000C114BBEFDB06B4E0EB06F10438F315E084
:1052300009C037EFC31638E0D306E104F10408F0E3
:105240005FC011E0FB013396A591B491FB01359647
:10525000C591D491FB0137963491E82FE695E695F8
:10526000E695F0E0EE0FFF1FEC5BF94F459154918E
:105270008770E1E0F0E07F0101C0EE0C8A95EAF76B
:10528000FB013196C590D490892F8170A038B1056B
:1052900009F44BC0EFB7F8949881977011F0191387
:1052A00041C0188381112EC09FB7F894622F70E01F
:1052B000E601798368839FBF9C913160392B3C93D1
:1052C000DA0111969C911197E92A1196EC92EFBFA1
:1052D000B601DF91CF911F91FF90EF90DF90CF90BB
:1052E0000895A8EDCA16A7E2DA06E104F10468F40D
:1052F000B7EFCB16B8E0DB06E104F10408F4A1CF68
:1053000012E0A0CFE6012883D7CF13E09BCFC114D2
:10531000EBEFDE06E4E0EE06F10410F416E092CFC7
:1053200017E090CF82E30E94703B83E30E94703BC2
:10533000FC0186898460868B1092260281E080932E
:105340004C02448155816681778180899189A28947
:10535000B389840F951FA61FB71F84839583A683E7
:10536000B78381E00895FC013897968990FF08C0C3
:10537000608D678B9A7F9460968BCF010E944D273A
:1053800080E00895FC01A085B1859C9182858923E8
:10539000D1F0818D80958170C9F4838D815031F178
:1053A000838F448155816681778187859089A18922
:1053B000B289840F951FA61FB71F84839583A68388
:1053C000B78381E00895818D817039F38DE09AE291
:1053D0009383828383899489A589B68984839583FD
:1053E000A683B783828D838F81E00895A789B08DCE
:1053F00056969C915697892F817090FFE3CF648DCC
:1054000057966C9357979A7F946056969C935697AD
:10541000CD010E944D2780E008950F931F93FC015A
:10542000A085B1859C9104811581268137814385B2
:10543000548565857685400F511F621F731F8285D5
:10544000892361F0818D8095817059F04483558363
:105450006683778381E01F910F910895818D81701C
:10546000A9F7438B548B658B768B82EC99E29383FF
:105470008283CF011F910F910C94C229CF93FC011D
:10548000C08160EB7AE28C2F0E943928FC01F894ED
:10549000818D33894489558966897894A085B18541
:1054A0002C919285922321E009F420E01F922F9302
:1054B0006F935F934F933F93869581701F928F9365
:1054C0001F92CF9388EF95E09F938F930E94CC32E9
:1054D0008DB79EB70C960FB6F8949EBF0FBE8DBFCA
:1054E000CF910895CF93FC01C08163E372E18C2FCB
:1054F0000E943928FC01F89480A191A1A2A1B3A136
:1055000024A5468557856089718924FD04C0769558
:10551000679557954795841B950BA60BB70BB7FF5F
:1055200007C0B095A095909581959F4FAF4FBF4F05
:105530007894B054BF93AF939F938F931F92CF9360
:105540008DEF95E09F938F930E94CC328DB79EB7DD
:1055500008960FB6F8949EBF0FBE8DBFCF910895E9
:105560000F931F93CF93DF93EC014DE150E060EB7D
:105570007AE288810E940A288C0168858C810E94C9
:10558000181BF801608771878287DF91CF911F9187
:105590000F9108950F931F93CF93DF938C0160EBCE
:1055A0007AE2FC0180810E943928EC010E94DE35FC
:1055B000F80184819581A681B7818C839D83AE8318
:1055C000BF8380859185A285B3858F87988BA98BB2
:1055D000BA8B84858A8F882361F1F80140895189CB
:1055E000628973894B875C876D877E872DE03AE2FD
:1055F0003B832A838B8F84899589A689B789892BD8
:105600008A2B8B2BA1F482E0898F60E476E2F8018B
:10561000808D0E943928988F8F8BF801848D8C8F14
:10562000CE01DF91CF911F910F910C94303683E022
:10563000EBCF188E1F8A198EDF91CF911F910F919A
:1056400008950F931F93CF93DF938C01EC01A897DC
:10565000CE010E94DE351C821D821E821F821A8AA4
:105660001B8A1C8A1D8A88A199A1AAA1BBA12CA56D
:105670004E855F856889798924FD04C07695679594
:1056800057954795841B950BA60BB70BB7FD40C0EC
:10569000B095A095909581959F4FAF4FBF4F88A330
:1056A00099A3AAA3BBA31E861F86188A198A2471F0
:1056B00028602CA76D8D7E8D8F8D40E00E94511B40
:1056C0004CA544706A8D7B8D8C8D0E94511BD80136
:1056D0001497ED91FC9111973097A9F040914502F4
:1056E0009091460201C0F90120813181408391836C
:1056F000F0934602E09345024E2F9F2F211531056E
:1057000091F71D921C92DF91CF911F910F910895F7
:10571000B095A095909581959F4FAF4FBF4FB8CF53
:105720000F931F93CF93DF938C0163E372E1FC012E
:1057300080810E943928EC0160E476E2F8018481DE
:105740000E943928BE01685D7F4F4FB7F8942AA5A3
:105750003BA5232B89F421E23BE23BA72AA7FC01CE
:105760002489358939A728A7758B648B4FBFDF91B2
:10577000CF911F910F91089589E10E94703BCF93C3
:10578000DF93EC0169EA7CE288810E9439286C8110
:1057900048855985FC01238120FD06C0FC018081DC
:1057A000DF91CF910C94B71A81819281DF91CF91D3
:1057B0000C9415262F923F924F925F926F927F9298
:1057C0008F929F92AF92BF92CF92DF92EF92FF9211
:1057D0000F931F93CF93DF9300D000D0CDB7DEB7E8
:1057E0008C012DB73EB73D832C8369EA7CE2DC0156
:1057F0008C910E9439289A838983F801F481FB8374
:10580000D80118968D909C9019971C964D905D909C
:105810006D907C901F9740FC99C076946794579444
:105820004794F801E088F188C42CD12CFB810F2F1C
:1058300010E0C8018C0D9D1D2DB73EB7281B390BFC
:105840000FB6F8943EBF0FBE2DBF8DB79EB7019621
:105850005C01A981BA8113963C90A801B4010E9411
:10586000913CB32DB170BE8330FE53C01501200EA4
:10587000311E8101242DA4016B81E981FA8181818E
:1058800092810E946325C114D10409F453C0A6017A
:105890004E0D5F1DF10120E030E0D7018D917D01BB
:1058A0008095908189238083DA019D91AD01892BB8
:1058B00081932F5F3F4F2C153D057CF3BE81B111C5
:1058C00039C06B81640DA501E981FA8180810E9454
:1058D000B71A2C813D810FB6F8943EBF0FBE2DBF85
:1058E00026960FB6F894DEBF0FBECDBFDF91CF91E5
:1058F0001F910F91FF90EF90DF90CF90BF90AF90EE
:105900009F908F907F906F905F904F903F902F90DF
:1059100008951501200E311E8101242DA4016B81F3
:10592000E981FA8180810E942D1AC114D10409F005
:10593000AECFC7CF6B81640DA501A981BA81119645
:105940008D919C9112970E941526C3CF8CE10E94E5
:10595000703B44E050E069EA7CE2FC0180810C94F9
:105960000A28AF92BF92CF92DF92EF92FF920F93ED
:105970001F93CF93DF93CDB7DEB77C01ADB6BEB634
:10598000FC01C08069EA7CE28C2D0E943928F70175
:10599000648140855185D4842DB73EB72D193109D6
:1059A0000FB6F8943EBF0FBE2DBFEDB7FEB73196D0
:1059B0007F01FC012381870120FD2AC02D2DFC01E0
:1059C00080810E942D1AFF92EF921F92DF921F9208
:1059D000CF9284EE95E09F938F930E94CC322DB7A7
:1059E0003EB7285F3F4F0FB6F8943EBF0FBE2DBFA6
:1059F0000FB6F894BEBE0FBEADBEDF91CF911F9122
:105A00000F91FF90EF90DF90CF90BF90AF900895EF
:105A10002D2D818192810E946325D5CF8F929F92F7
:105A2000AF92BF92FF920F931F93CF93DF938C019E
:105A3000FC0184858F77F82E69EA7CE280810E94E0
:105A40003928EC01F80184819581A681B781892BE1
:105A50008A2B8B2BB1F58091BC0082FF10C08F2D5B
:105A6000880F88838B8182608B83DF91CF911F9118
:105A70000F91FF90BF90AF909F908F900895F80185
:105A800080849184A284B38461E089E10E94461EEF
:105A900061E088E10E94461E1092B900F0E88F167E
:105AA000FAE19F06F6E0AF06B10438F488E480938B
:105AB000B80084E08093BC00D2CF8CE08093B80023
:105AC000F8CF81E30E94703B80912702882329F060
:105AD000823011F010922702089582E00E94703BFC
